{
    "_format": "hh-sol-artifact-1",
    "contractName": "Rroulette",
    "sourceName": "contracts/Rroulette.sol",
    "abi": [
        {
            "inputs": [
                {
                    "internalType": "uint256",
                    "name": "_ticketPrice",
                    "type": "uint256"
                },
                {
                    "internalType": "uint256",
                    "name": "_totalNumofPlayers",
                    "type": "uint256"
                }
            ],
            "stateMutability": "nonpayable",
            "type": "constructor"
        },
        {
            "anonymous": false,
            "inputs": [
                {
                    "indexed": false,
                    "internalType": "uint256",
                    "name": "gameId",
                    "type": "uint256"
                },
                {
                    "indexed": true,
                    "internalType": "address",
                    "name": "winner",
                    "type": "address"
                }
            ],
            "name": "GameEnded",
            "type": "event"
        },
        {
            "anonymous": false,
            "inputs": [
                {
                    "indexed": false,
                    "internalType": "uint256",
                    "name": "gameId",
                    "type": "uint256"
                }
            ],
            "name": "NewGameCreated",
            "type": "event"
        },
        {
            "anonymous": false,
            "inputs": [
                {
                    "indexed": false,
                    "internalType": "address",
                    "name": "from",
                    "type": "address"
                },
                {
                    "indexed": false,
                    "internalType": "address",
                    "name": "winner",
                    "type": "address"
                },
                {
                    "indexed": false,
                    "internalType": "uint256",
                    "name": "amount",
                    "type": "uint256"
                }
            ],
            "name": "PaidWinner",
            "type": "event"
        },
        {
            "anonymous": false,
            "inputs": [
                {
                    "indexed": false,
                    "internalType": "uint256",
                    "name": "gameId",
                    "type": "uint256"
                },
                {
                    "indexed": false,
                    "internalType": "address",
                    "name": "joinee",
                    "type": "address"
                }
            ],
            "name": "PlayerJoinedGame",
            "type": "event"
        },
        {
            "anonymous": false,
            "inputs": [
                {
                    "indexed": false,
                    "internalType": "uint256",
                    "name": "chairShooting",
                    "type": "uint256"
                },
                {
                    "indexed": false,
                    "internalType": "address",
                    "name": "player",
                    "type": "address"
                }
            ],
            "name": "PlayerShot",
            "type": "event"
        },
        {
            "anonymous": false,
            "inputs": [
                {
                    "indexed": true,
                    "internalType": "bytes32",
                    "name": "requestId",
                    "type": "bytes32"
                },
                {
                    "indexed": true,
                    "internalType": "uint256",
                    "name": "result",
                    "type": "uint256"
                }
            ],
            "name": "RequestFulFilled",
            "type": "event"
        },
        {
            "anonymous": false,
            "inputs": [
                {
                    "indexed": true,
                    "internalType": "bytes32",
                    "name": "requestId",
                    "type": "bytes32"
                }
            ],
            "name": "RequestNumber",
            "type": "event"
        },
        {
            "inputs": [
                {
                    "internalType": "address",
                    "name": "_newowner",
                    "type": "address"
                }
            ],
            "name": "changeOwnership",
            "outputs": [],
            "stateMutability": "nonpayable",
            "type": "function"
        },
        {
            "inputs": [],
            "name": "createNewGame",
            "outputs": [
                {
                    "internalType": "uint256",
                    "name": "",
                    "type": "uint256"
                }
            ],
            "stateMutability": "payable",
            "type": "function"
        },
        {
            "inputs": [],
            "name": "gameID",
            "outputs": [
                {
                    "internalType": "uint256",
                    "name": "",
                    "type": "uint256"
                }
            ],
            "stateMutability": "view",
            "type": "function"
        },
        {
            "inputs": [
                {
                    "internalType": "uint256",
                    "name": "_gameId",
                    "type": "uint256"
                }
            ],
            "name": "getGameInfo",
            "outputs": [
                {
                    "internalType": "uint256",
                    "name": "numPlayers",
                    "type": "uint256"
                },
                {
                    "internalType": "uint256",
                    "name": "gameMoney",
                    "type": "uint256"
                },
                {
                    "internalType": "enum Rroulette.GameState",
                    "name": "state",
                    "type": "uint8"
                }
            ],
            "stateMutability": "view",
            "type": "function"
        },
        {
            "inputs": [],
            "name": "getRandomNumber",
            "outputs": [
                {
                    "internalType": "bytes32",
                    "name": "requestId",
                    "type": "bytes32"
                }
            ],
            "stateMutability": "nonpayable",
            "type": "function"
        },
        {
            "inputs": [
                {
                    "internalType": "uint256",
                    "name": "_gameId",
                    "type": "uint256"
                }
            ],
            "name": "getWinner",
            "outputs": [
                {
                    "internalType": "address",
                    "name": "_winner",
                    "type": "address"
                }
            ],
            "stateMutability": "view",
            "type": "function"
        },
        {
            "inputs": [
                {
                    "internalType": "uint256",
                    "name": "_gameId",
                    "type": "uint256"
                }
            ],
            "name": "getWinnerForGameId",
            "outputs": [
                {
                    "internalType": "address",
                    "name": "_winner",
                    "type": "address"
                }
            ],
            "stateMutability": "view",
            "type": "function"
        },
        {
            "inputs": [
                {
                    "internalType": "uint256",
                    "name": "_gameId",
                    "type": "uint256"
                }
            ],
            "name": "joinGame",
            "outputs": [],
            "stateMutability": "payable",
            "type": "function"
        },
        {
            "inputs": [],
            "name": "owner",
            "outputs": [
                {
                    "internalType": "address",
                    "name": "",
                    "type": "address"
                }
            ],
            "stateMutability": "view",
            "type": "function"
        },
        {
            "inputs": [],
            "name": "payWinner",
            "outputs": [],
            "stateMutability": "nonpayable",
            "type": "function"
        },
        {
            "inputs": [
                {
                    "internalType": "uint256",
                    "name": "",
                    "type": "uint256"
                }
            ],
            "name": "players",
            "outputs": [
                {
                    "internalType": "address",
                    "name": "",
                    "type": "address"
                }
            ],
            "stateMutability": "view",
            "type": "function"
        },
        {
            "inputs": [],
            "name": "randomResult",
            "outputs": [
                {
                    "internalType": "uint256",
                    "name": "",
                    "type": "uint256"
                }
            ],
            "stateMutability": "view",
            "type": "function"
        },
        {
            "inputs": [
                {
                    "internalType": "bytes32",
                    "name": "requestId",
                    "type": "bytes32"
                },
                {
                    "internalType": "uint256",
                    "name": "randomness",
                    "type": "uint256"
                }
            ],
            "name": "rawFulfillRandomness",
            "outputs": [],
            "stateMutability": "nonpayable",
            "type": "function"
        },
        {
            "inputs": [],
            "name": "ticketPrice",
            "outputs": [
                {
                    "internalType": "uint256",
                    "name": "",
                    "type": "uint256"
                }
            ],
            "stateMutability": "view",
            "type": "function"
        },
        {
            "inputs": [],
            "name": "totalNumofPlayers",
            "outputs": [
                {
                    "internalType": "uint256",
                    "name": "",
                    "type": "uint256"
                }
            ],
            "stateMutability": "view",
            "type": "function"
        },
        {
            "stateMutability": "payable",
            "type": "receive"
        }
    ],
    "bytecode": "0x60c06040523480156200001157600080fd5b506040516200292938038062002929833981810160405281019062000037919062000178565b73b3dccb4cf7a26f6cf6b120cf5a73875b7bbc655b7301be23585060835e02b77ef475b0cc51aa1e07098173ffffffffffffffffffffffffffffffffffffffff1660a08173ffffffffffffffffffffffffffffffffffffffff1660601b815250508073ffffffffffffffffffffffffffffffffffffffff1660808173ffffffffffffffffffffffffffffffffffffffff1660601b81525050505033600160006101000a81548173ffffffffffffffffffffffffffffffffffffffff021916908373ffffffffffffffffffffffffffffffffffffffff16021790555081600281905550806003819055507f2ed0feb3e7fd2022120aa84fab1945545a9f2ffc9076fd6156fa96eaff4c131160001b60048190555067016345785d8a00006005819055505050620001dd565b6000815190506200017281620001c3565b92915050565b600080604083850312156200018c57600080fd5b60006200019c8582860162000161565b9250506020620001af8582860162000161565b9150509250929050565b6000819050919050565b620001ce81620001b9565b8114620001da57600080fd5b50565b60805160601c60a05160601c612712620002176000396000818161078f01526112f701526000818161099d01526112bb01526127126000f3fe6080604052600436106100ec5760003560e01c80638da5cb5b1161008a578063dbdff2c111610059578063dbdff2c1146102f1578063eb87eb5e1461031c578063efaa55a01461033a578063f71d96cb14610356576100f3565b80638da5cb5b1461025b57806394985ddd14610286578063be71248a146102af578063c7dd4b4f146102c6576100f3565b80634129b2c9116100c65780634129b2c91461018957806342619f66146101c657806347e1d550146101f1578063644ad35114610230576100f3565b80631209b1f6146100f857806316bcee40146101235780632af4c31e14610160576100f3565b366100f357005b600080fd5b34801561010457600080fd5b5061010d610393565b60405161011a91906122e5565b60405180910390f35b34801561012f57600080fd5b5061014a60048036038101906101459190611b5e565b610399565b604051610157919061204c565b60405180910390f35b34801561016c57600080fd5b5061018760048036038101906101829190611ad0565b6103d6565b005b34801561019557600080fd5b506101b060048036038101906101ab9190611b5e565b6104aa565b6040516101bd919061204c565b60405180910390f35b3480156101d257600080fd5b506101db6106f7565b6040516101e891906122e5565b60405180910390f35b3480156101fd57600080fd5b5061021860048036038101906102139190611b5e565b6106fd565b60405161022793929190612329565b60405180910390f35b34801561023c57600080fd5b50610245610761565b60405161025291906122e5565b60405180910390f35b34801561026757600080fd5b50610270610767565b60405161027d919061204c565b60405180910390f35b34801561029257600080fd5b506102ad60048036038101906102a89190611b22565b61078d565b005b3480156102bb57600080fd5b506102c4610829565b005b3480156102d257600080fd5b506102db610990565b6040516102e891906122e5565b60405180910390f35b3480156102fd57600080fd5b50610306610996565b60405161031391906120dc565b60405180910390f35b610324610ac5565b60405161033191906122e5565b60405180910390f35b610354600480360381019061034f9190611b5e565b610ddf565b005b34801561036257600080fd5b5061037d60048036038101906103789190611b5e565b611231565b60405161038a919061204c565b60405180910390f35b60025481565b6000600b600083815260200190815260200160002060009054906101000a900473ffffffffffffffffffffffffffffffffffffffff169050919050565b600160009054906101000a900473ffffffffffffffffffffffffffffffffffffffff1673ffffffffffffffffffffffffffffffffffffffff163373ffffffffffffffffffffffffffffffffffffffff1614610466576040517f08c379a000000000000000000000000000000000000000000000000000000000815260040161045d90612245565b60405180910390fd5b80600160006101000a81548173ffffffffffffffffffffffffffffffffffffffff021916908373ffffffffffffffffffffffffffffffffffffffff16021790555050565b60008160075481146104f1576040517f08c379a00000000000000000000000000000000000000000000000000000000081526004016104e8906122a5565b60405180910390fd5b600060086000858152602001908152602001600020905060006002811115610542577f4e487b7100000000000000000000000000000000000000000000000000000000600052602160045260246000fd5b8160020160009054906101000a900460ff16600281111561058c577f4e487b7100000000000000000000000000000000000000000000000000000000600052602160045260246000fd5b146105cc576040517f08c379a00000000000000000000000000000000000000000000000000000000081526004016105c390612205565b60405180910390fd5b60005b6009805490508110156106ef57600073ffffffffffffffffffffffffffffffffffffffff166009828154811061062e577f4e487b7100000000000000000000000000000000000000000000000000000000600052603260045260246000fd5b9060005260206000200160009054906101000a900473ffffffffffffffffffffffffffffffffffffffff1673ffffffffffffffffffffffffffffffffffffffff16146106dc57600981815481106106ae577f4e487b7100000000000000000000000000000000000000000000000000000000600052603260045260246000fd5b9060005260206000200160009054906101000a900473ffffffffffffffffffffffffffffffffffffffff1693505b80806106e790612540565b9150506105cf565b505050919050565b60065481565b600080600060086000858152602001908152602001600020600001549250600860008581526020019081526020016000206001015491506008600085815260200190815260200160002060020160009054906101000a900460ff1690509193909250565b60035481565b600160009054906101000a900473ffffffffffffffffffffffffffffffffffffffff1681565b7f000000000000000000000000000000000000000000000000000000000000000073ffffffffffffffffffffffffffffffffffffffff163373ffffffffffffffffffffffffffffffffffffffff161461081b576040517f08c379a000000000000000000000000000000000000000000000000000000000815260040161081290612225565b60405180910390fd5b6108258282611270565b5050565b600160009054906101000a900473ffffffffffffffffffffffffffffffffffffffff1673ffffffffffffffffffffffffffffffffffffffff163373ffffffffffffffffffffffffffffffffffffffff16146108b9576040517f08c379a00000000000000000000000000000000000000000000000000000000081526004016108b090612245565b60405180910390fd5b6000600c60009054906101000a900473ffffffffffffffffffffffffffffffffffffffff1690506000479050600c60006101000a81549073ffffffffffffffffffffffffffffffffffffffff02191690558173ffffffffffffffffffffffffffffffffffffffff166108fc829081150290604051600060405180830381858888f19350505050158015610950573d6000803e3d6000fd5b507fc7f90733adf7045367f4422277e5df5599ba8438ea674c2d80a6b98cc250278d30838360405161098493929190612067565b60405180910390a15050565b60075481565b60006005547f000000000000000000000000000000000000000000000000000000000000000073ffffffffffffffffffffffffffffffffffffffff166370a08231306040518263ffffffff1660e01b81526004016109f4919061204c565b60206040518083038186803b158015610a0c57600080fd5b505afa158015610a20573d6000803e3d6000fd5b505050506040513d601f19601f82011682018060405250810190610a449190611b87565b1015610a85576040517f08c379a0000000000000000000000000000000000000000000000000000000008152600401610a7c90612185565b60405180910390fd5b610a936004546005546112b7565b9050807f497d1cf83fbfc5c54cfe150d28a11e4f9cdd7131b39e446b61f5e43dea18f41560405160405180910390a290565b60006002543414610b0b576040517f08c379a0000000000000000000000000000000000000000000000000000000008152600401610b0290612265565b60405180910390fd5b60006002811115610b45577f4e487b7100000000000000000000000000000000000000000000000000000000600052602160045260246000fd5b60086000600754815260200190815260200160002060020160009054906101000a900460ff166002811115610ba3577f4e487b7100000000000000000000000000000000000000000000000000000000600052602160045260246000fd5b14610be3576040517f08c379a0000000000000000000000000000000000000000000000000000000008152600401610bda90612285565b60405180910390fd5b600160076000828254610bf6919061238d565b925050819055506000600860006007548152602001908152602001600020905060018160020160006101000a81548160ff02191690836002811115610c64577f4e487b7100000000000000000000000000000000000000000000000000000000600052602160045260246000fd5b02179055508060000160008154610c7a90612540565b9190508190555034816001016000828254610c95919061238d565b9250508190555060096000610caa9190611a29565b6009339080600181540180825580915050600190039060005260206000200160009091909190916101000a81548173ffffffffffffffffffffffffffffffffffffffff021916908373ffffffffffffffffffffffffffffffffffffffff1602179055508060086000600754815260200190815260200160002060008201548160000155600182015481600101556002820160009054906101000a900460ff168160020160006101000a81548160ff02191690836002811115610d95577f4e487b7100000000000000000000000000000000000000000000000000000000600052602160045260246000fd5b02179055509050507f40cd4960d42a9ef161fc5f47c7be8e95bbdf4ef5f7d149743de8787b224fa67c600754604051610dce91906122e5565b60405180910390a160075491505090565b60003411610e22576040517f08c379a0000000000000000000000000000000000000000000000000000000008152600401610e19906121a5565b60405180910390fd5b806007548114610e67576040517f08c379a0000000000000000000000000000000000000000000000000000000008152600401610e5e906122a5565b60405180910390fd5b8160016002811115610ea2577f4e487b7100000000000000000000000000000000000000000000000000000000600052602160045260246000fd5b6008600083815260200190815260200160002060020160009054906101000a900460ff166002811115610efe577f4e487b7100000000000000000000000000000000000000000000000000000000600052602160045260246000fd5b14610f3e576040517f08c379a0000000000000000000000000000000000000000000000000000000008152600401610f3590612165565b60405180910390fd5b33600080600090505b600980549050811015611004578273ffffffffffffffffffffffffffffffffffffffff1660098281548110610fa5577f4e487b7100000000000000000000000000000000000000000000000000000000600052603260045260246000fd5b9060005260206000200160009054906101000a900473ffffffffffffffffffffffffffffffffffffffff1673ffffffffffffffffffffffffffffffffffffffff161415610ff157600191505b8080610ffc90612540565b915050610f47565b50600015158115151461104c576040517f08c379a0000000000000000000000000000000000000000000000000000000008152600401611043906122c5565b60405180910390fd5b600060086000878152602001908152602001600020905060025434146110a7576040517f08c379a000000000000000000000000000000000000000000000000000000000815260040161109e90612265565b60405180910390fd5b6003548160000154106110ef576040517f08c379a00000000000000000000000000000000000000000000000000000000081526004016110e6906121c5565b60405180910390fd5b806000016000815461110090612540565b919050819055503481600101600082825461111b919061238d565b925050819055506009339080600181540180825580915050600190039060005260206000200160009091909190916101000a81548173ffffffffffffffffffffffffffffffffffffffff021916908373ffffffffffffffffffffffffffffffffffffffff1602179055507fe52d81459d9994c73740ea14247d27531f0f00be7c54bc1b8b759df2feda9fe786336040516111b6929190612300565b60405180910390a1600354816000015414156112295760028160020160006101000a81548160ff0219169083600281111561121a577f4e487b7100000000000000000000000000000000000000000000000000000000600052602160045260246000fd5b021790555061122886611416565b5b505050505050565b6009818154811061124157600080fd5b906000526020600020016000915054906101000a900473ffffffffffffffffffffffffffffffffffffffff1681565b60068161127d919061259d565b600681905550600654827f3c58dfe630ffd8b23936b663da66132edb0ed86f64d7bad2c9489409c761a30560405160405180910390a35050565b60007f000000000000000000000000000000000000000000000000000000000000000073ffffffffffffffffffffffffffffffffffffffff16634000aea07f00000000000000000000000000000000000000000000000000000000000000008486600060405160200161132b9291906120f7565b6040516020818303038152906040526040518463ffffffff1660e01b81526004016113589392919061209e565b602060405180830381600087803b15801561137257600080fd5b505af1158015611386573d6000803e3d6000fd5b505050506040513d601f19601f820116820180604052508101906113aa9190611af9565b5060006113cc84600030600080898152602001908152602001600020546119ba565b90506001600080868152602001908152602001600020546113ed919061238d565b6000808681526020019081526020016000208190555061140d84826119f6565b91505092915050565b80600754811461145b576040517f08c379a0000000000000000000000000000000000000000000000000000000008152600401611452906122a5565b60405180910390fd5b81600280811115611495577f4e487b7100000000000000000000000000000000000000000000000000000000600052602160045260246000fd5b6008600083815260200190815260200160002060020160009054906101000a900460ff1660028111156114f1577f4e487b7100000000000000000000000000000000000000000000000000000000600052602160045260246000fd5b14611531576040517f08c379a0000000000000000000000000000000000000000000000000000000008152600401611528906121e5565b60405180910390fd5b60006008600085815260200190815260200160002090506000600354905060008060005b6001841115611830576000611568610996565b905084600a60008381526020019081526020016000208190555060065492505b600083138061162657508173ffffffffffffffffffffffffffffffffffffffff16600985815481106115e3577f4e487b7100000000000000000000000000000000000000000000000000000000600052603260045260246000fd5b9060005260206000200160009054906101000a900473ffffffffffffffffffffffffffffffffffffffff1673ffffffffffffffffffffffffffffffffffffffff16145b156116fc57838061163690612540565b94505060035484141561164c5760009350611588565b8173ffffffffffffffffffffffffffffffffffffffff166009858154811061169d577f4e487b7100000000000000000000000000000000000000000000000000000000600052603260045260246000fd5b9060005260206000200160009054906101000a900473ffffffffffffffffffffffffffffffffffffffff1673ffffffffffffffffffffffffffffffffffffffff1614156116e957611588565b82806116f4906124cd565b935050611588565b7f21d4bd61f668d296bddd7d0ef29a4b5800ed97c091000da11c098eb32c8246818460098681548110611758577f4e487b7100000000000000000000000000000000000000000000000000000000600052603260045260246000fd5b9060005260206000200160009054906101000a900473ffffffffffffffffffffffffffffffffffffffff16604051611791929190612300565b60405180910390a181600985815481106117d4577f4e487b7100000000000000000000000000000000000000000000000000000000600052603260045260246000fd5b9060005260206000200160006101000a81548173ffffffffffffffffffffffffffffffffffffffff021916908373ffffffffffffffffffffffffffffffffffffffff160217905550848061182790612516565b95505050611555565b60008560020160006101000a81548160ff0219169083600281111561187e577f4e487b7100000000000000000000000000000000000000000000000000000000600052602160045260246000fd5b021790555061188c886104aa565b600c60006101000a81548173ffffffffffffffffffffffffffffffffffffffff021916908373ffffffffffffffffffffffffffffffffffffffff160217905550600c60009054906101000a900473ffffffffffffffffffffffffffffffffffffffff16600b60008a815260200190815260200160002060006101000a81548173ffffffffffffffffffffffffffffffffffffffff021916908373ffffffffffffffffffffffffffffffffffffffff160217905550600c60009054906101000a900473ffffffffffffffffffffffffffffffffffffffff1673ffffffffffffffffffffffffffffffffffffffff167f3d5fcd8fa3235aeb3897f25c8ea49989174981afcb01b9d03189d1056a16775b896040516119a891906122e5565b60405180910390a25050505050505050565b6000848484846040516020016119d39493929190612120565b6040516020818303038152906040528051906020012060001c9050949350505050565b60008282604051602001611a0b929190612020565b60405160208183030381529060405280519060200120905092915050565b5080546000825590600052602060002090810190611a479190611a4a565b50565b5b80821115611a63576000816000905550600101611a4b565b5090565b600081359050611a7681612680565b92915050565b600081519050611a8b81612697565b92915050565b600081359050611aa0816126ae565b92915050565b600081359050611ab5816126c5565b92915050565b600081519050611aca816126c5565b92915050565b600060208284031215611ae257600080fd5b6000611af084828501611a67565b91505092915050565b600060208284031215611b0b57600080fd5b6000611b1984828501611a7c565b91505092915050565b60008060408385031215611b3557600080fd5b6000611b4385828601611a91565b9250506020611b5485828601611aa6565b9150509250929050565b600060208284031215611b7057600080fd5b6000611b7e84828501611aa6565b91505092915050565b600060208284031215611b9957600080fd5b6000611ba784828501611abb565b91505092915050565b611bb981612452565b82525050565b611bc8816123e3565b82525050565b611bd781612401565b82525050565b611bee611be982612401565b612589565b82525050565b6000611bff82612360565b611c09818561236b565b9350611c1981856020860161249a565b611c228161265b565b840191505092915050565b611c3681612464565b82525050565b6000611c4960288361237c565b91507f47616d6520697320616c72656164792073657475702e20506c6561736520747260008301527f7920616761696e2e0000000000000000000000000000000000000000000000006020830152604082019050919050565b6000611caf600e8361237c565b91507f4e656564206d6f7265204c494e4b0000000000000000000000000000000000006000830152602082019050919050565b6000611cef600e8361237c565b91507f45746865722072657175697265640000000000000000000000000000000000006000830152602082019050919050565b6000611d2f60298361237c565b91507f4d617820706c61796572732061646465642e20506c65617365206a6f696e206e60008301527f6578742067616d652e00000000000000000000000000000000000000000000006020830152604082019050919050565b6000611d9560278361237c565b91507f47616d6520686173206e6f7420737461727465642e20506c656173652074727960008301527f20616761696e2e000000000000000000000000000000000000000000000000006020830152604082019050919050565b6000611dfb60138361237c565b91507f47616d6520686173206e6f7420656e6465642e000000000000000000000000006000830152602082019050919050565b6000611e3b601f8361237c565b91507f4f6e6c7920565246436f6f7264696e61746f722063616e2066756c66696c6c006000830152602082019050919050565b6000611e7b600f8361237c565b91507f4e6f7420617574686f72697a65642100000000000000000000000000000000006000830152602082019050919050565b6000611ebb60218361237c565b91507f496e73756666696369656e7420616d6f756e74206f662045746865722073656e60008301527f74000000000000000000000000000000000000000000000000000000000000006020830152604082019050919050565b6000611f21601c8361237c565b91507f50726576696f75732067616d6520686173206e6f7420656e64656421000000006000830152602082019050919050565b6000611f6160248361237c565b91507f496e76616c69642047616d652049642c204e6f20737563682067616d6520657860008301527f69737473000000000000000000000000000000000000000000000000000000006020830152604082019050919050565b6000611fc760168361237c565b91507f506c6179657220616c7265616479206a6f696e65642e000000000000000000006000830152602082019050919050565b61200381612448565b82525050565b61201a61201582612448565b612593565b82525050565b600061202c8285611bdd565b60208201915061203c8284612009565b6020820191508190509392505050565b60006020820190506120616000830184611bbf565b92915050565b600060608201905061207c6000830186611bbf565b6120896020830185611bb0565b6120966040830184611ffa565b949350505050565b60006060820190506120b36000830186611bbf565b6120c06020830185611ffa565b81810360408301526120d28184611bf4565b9050949350505050565b60006020820190506120f16000830184611bce565b92915050565b600060408201905061210c6000830185611bce565b6121196020830184611ffa565b9392505050565b60006080820190506121356000830187611bce565b6121426020830186611ffa565b61214f6040830185611bbf565b61215c6060830184611ffa565b95945050505050565b6000602082019050818103600083015261217e81611c3c565b9050919050565b6000602082019050818103600083015261219e81611ca2565b9050919050565b600060208201905081810360008301526121be81611ce2565b9050919050565b600060208201905081810360008301526121de81611d22565b9050919050565b600060208201905081810360008301526121fe81611d88565b9050919050565b6000602082019050818103600083015261221e81611dee565b9050919050565b6000602082019050818103600083015261223e81611e2e565b9050919050565b6000602082019050818103600083015261225e81611e6e565b9050919050565b6000602082019050818103600083015261227e81611eae565b9050919050565b6000602082019050818103600083015261229e81611f14565b9050919050565b600060208201905081810360008301526122be81611f54565b9050919050565b600060208201905081810360008301526122de81611fba565b9050919050565b60006020820190506122fa6000830184611ffa565b92915050565b60006040820190506123156000830185611ffa565b6123226020830184611bbf565b9392505050565b600060608201905061233e6000830186611ffa565b61234b6020830185611ffa565b6123586040830184611c2d565b949350505050565b600081519050919050565b600082825260208201905092915050565b600082825260208201905092915050565b600061239882612448565b91506123a383612448565b9250827fffffffffffffffffffffffffffffffffffffffffffffffffffffffffffffffff038211156123d8576123d76125ce565b5b828201905092915050565b60006123ee82612428565b9050919050565b60008115159050919050565b6000819050919050565b60008190506124198261266c565b919050565b6000819050919050565b600073ffffffffffffffffffffffffffffffffffffffff82169050919050565b6000819050919050565b600061245d82612476565b9050919050565b600061246f8261240b565b9050919050565b600061248182612488565b9050919050565b600061249382612428565b9050919050565b60005b838110156124b857808201518184015260208101905061249d565b838111156124c7576000848401525b50505050565b60006124d88261241e565b91507f800000000000000000000000000000000000000000000000000000000000000082141561250b5761250a6125ce565b5b600182039050919050565b600061252182612448565b91506000821415612535576125346125ce565b5b600182039050919050565b600061254b82612448565b91507fffffffffffffffffffffffffffffffffffffffffffffffffffffffffffffffff82141561257e5761257d6125ce565b5b600182019050919050565b6000819050919050565b6000819050919050565b60006125a882612448565b91506125b383612448565b9250826125c3576125c26125fd565b5b828206905092915050565b7f4e487b7100000000000000000000000000000000000000000000000000000000600052601160045260246000fd5b7f4e487b7100000000000000000000000000000000000000000000000000000000600052601260045260246000fd5b7f4e487b7100000000000000000000000000000000000000000000000000000000600052602160045260246000fd5b6000601f19601f8301169050919050565b6003811061267d5761267c61262c565b5b50565b612689816123e3565b811461269457600080fd5b50565b6126a0816123f5565b81146126ab57600080fd5b50565b6126b781612401565b81146126c257600080fd5b50565b6126ce81612448565b81146126d957600080fd5b5056fea2646970667358221220d76bc5f52c6d1f2598b76ca322d60f91be8510ff9531c38c3521677eb725449564736f6c63430008000033",
    "linkReferences": {},
    "deployedLinkReferences": {}
}